:060000000A128A111F2BF9
:10000800AA00030EAB000B1810200B1930202B0E82
:100018008300AA0E2A0E09000313831206189220E1
:10002800061C94208619E020861DE2200619E82087
:10003800061DEA2033083B3C0319C223861B6920AE
:10004800861F6B203308FF3C0319B301061B76207B
:10005800061F78200B10080003138312AF308100AD
:100068000B1188019F2370183F28F0184728701932
:100078004F28F019572870102D0887008814F0149D
:100088007011F0110800F0102E088700081570157F
:100098007010F011080070112F0887008815F015EE
:1000A8007010F0100800F0113F3087000814701429
:1000B800F01070110800080003138312FF308F003E
:1000C80034088E000C109920080020140800201C09
:1000D8000800B30A3308193C0319B30186208E209F
:1000E800A0010800A0140800A01C0800B3033308EE
:1000F800FF3C0319832086208E20A00108001930B8
:10010800B30008000313831233080022B500350832
:100118009000080033080023B400080020150800E8
:10012800201D0800A10AA001080021080319AF2812
:100138002108013C0319BA282108023C0319C328E5
:100148002108033C0319D4282108043C031D080096
:10015800A10185010800A30A2308803C031D0800AB
:100168000508A2002208FF3A85000800A40A24080E
:100178008500FF3C031D08008501A401080027082D
:10018800031DCC28A603A60BD1282714D1280800C4
:10019800A60AA60FD12827100800260885000800FF
:1001A8000130A906291CA80A28085A218500280810
:1001B8007F3C0319A8010800A01508003308133E66
:1001C800B300091089140800201608003308313CD0
:0A01D800B300031809108914080091
:100200008A010A140F3982076D343F346D343F344C
:100210006D343F346D343F346D343F346D343F348E
:100220006D343F343F346D346D343F343F343F34AC
:100230003F343F343F343F343F343F348A010A1463
:100240000F3982073F34063406345B345B344F3455
:100250004F34663466346D346D347D347D34073408
:100260007F347F3467343F345B344F347D343F34E4
:100270007D3467343F347F348A010A140F39820792
:100280003F343F343F343F343F343F343F343F34D6
:100290003F343F343F343F343F343F343F343F34C6
:1002A0003F343F340634063406345B345B344F3419
:1002B000663407348A010A14820785348B349234F9
:1002C00098349E34A434AA34B034B634BB34C13428
:1002D000C634CB34D034D534D934DD34E234E534CB
:1002E000E934EC34EF34F234F534F734F934FB34D8
:1002F000FC34FD34FE34FE34FF34FE34FE34FD3471
:10030000FC34FB34F934F734F534F234EF34EC34A4
:10031000E934E534E234DD34D934D534D034CB3467
:10032000C634C134BB34B634B034AA34A4349E3499
:10033000983492348B3485347F34793473346C340C
:10034000663460345A3454344E34483443343D3483
:10035000383433342E342934253421341C341934C0
:10036000153412340F340C34093407340534033493
:1003700002340134003400340034003400340134D9
:10038000023403340534073409340C340F34123486
:10039000153419341C342134253429342E343334A3
:1003A00038343D34433448344E3454345A34603451
:0A03B00066346C34733479347F3402
:100400008A018A143F39820731342134213421345E
:100410002134213421342134113411341134013484
:1004200001340134113401341134013401341134F4
:0C04300001342134013411340134013452
:100600008A018A140A143F398207EC34EC34F3343B
:10061000F634F834F934FA34FB34F734F834F93476
:10062000F334F434F534FB34F734FC34F834F9346F
:10063000FD34FB34FF34FD34FF34FE34FE344C23F0
:1006400066236D23742382238F23A001A101A201BD
:10065000A401A501A601A701A801A901AA01AB0156
:10066000F001AC01AD01AE01AF01B001B101B201C9
:10067000B30103138312AF3081000B11B501B40134
:10068000EC30B40003138312FF308F0034088E0067
:100690000C100C186020492B031783168801890160
:1006A000031383168501061406158615861706178B
:1006B000870108108810081188118901031383121B
:1006C00085018601870188018901080003138316CB
:1006D00081131514951715170800031383160F14AB
:1006E0000F178F160F160800031383160C140C1027
:1006F0000B171614961716178B150B108B178B16D6
:100700000B110800031383168111011581140114C4
:10071000811203138312AF3081000B110800031301
:1007200083121013901610169011901010140313CA
:100730008312FF308F0034088E000C10080033083D
:10074000B200B100B00032080021AD0031081E2116
:10075000AE0030083C21AF003208193C03190800F4
:10076000B201B101B0010800B20A32080A3C031D0F
:100770000800BA2BB10A31080A3C031D0800C02B3F
:10078000B00A08000530B200B101B0010800B203A0
:10079000B203B203B203B2033208FF3C0319D12BF8
:1007A00008000930B200B1033108FF3C0319D92B0E
:1007B00008000930B100B00308000530B000B101F5
:0407C000B20108007A
:04400E00D420FF3F7C
:00000001FF
