:060000000A128A110C280F
:10000800FE00030EF2000A08F3000A128A11AC2956
:100018000A128A110F2883134B30FD000230FE00AC
:10002800F730FF00373084000A128A110F230A12B2
:100038008A11CB01CC01CD01CE01CF01D001D10174
:10004800D201D301D40183010A128A118F2A8312A3
:1000580003135408AA005308A9000030AB00AC00F1
:10006800FF30AD000030AE000030AF00B0006430AB
:10007800B1000030B2000A128A112E220A128A1127
:10008800831203132A08D2002908D1006430A00083
:100098000030A1005208F5005108F4000530F600C0
:1000A8000030F7000A128A11B4220A128A11750860
:1000B80083120313A3007408A2000A128A1166218E
:1000C8000A128A11831203132108D0002008CF00D6
:1000D8000A30A8000030A9000A30A0000030A100B2
:1000E8005208F5005108F4000530F6000030F7001A
:1000F8000A128A11B4220A128A117508831203138C
:10010800A3007408A2000A128A1166210A128A1131
:10011800831203132108AB002008AA000A128A11CF
:10012800F2210A128A11831203132908CE00280823
:10013800CD000A30A8000030A9005208F500510887
:10014800F4000530F6000030F7000A128A11B422D4
:100158000A128A11750883120313AB007408AA00E7
:100168000A128A11F2210A128A118312031329082A
:10017800CC002808CB004F08373E840083130008C2
:1001880087000810881008150D3083120313B40077
:10019800FB30B300B30BCE28B40BCE288312031365
:1001A8004D08413E84008313000887000810881416
:1001B80008110D3083120313B400FB30B300B30BE6
:1001C800E328B40BE328831203134B08413E840051
:1001D8008313000887000814881008110D30831253
:1001E8000313B400FB30B300B30BF828B40BF828A2
:1001F800080083120313A601A11F032904290B2950
:10020800A009A109A00A0319A10AA601A60AA31F09
:100218000E290F291829A209A309A20A0319A30A5A
:100228000130A4002408A606A701A801200821047B
:1002380003191F2920295729A501A50A2E290130AC
:100248000310A00DA10DFF3E031D24290130A400B9
:100258002408A507A11F31293229232901300310B9
:10026800A70DA80DFF3E031D332921082302031DF6
:100278003F2920082202031C422943294A29200831
:10028800A2022108031CA303A302271401300310B0
:10029800A10CA00CFF3E031D4B290130A502031D34
:1002A800562957293229260803195B295C2961290F
:1002B800A709A809A70A0319A80A2808A100270856
:1002C800A000080083120313A501A6012008210439
:1002D80003196F297029A729A701A70A7E290130C8
:1002E8000310A00DA10DFF3E031D74290130A400C9
:1002F8002408A707A11F8129822973290130031027
:10030800A50DA60DFF3E031D832921082302031D09
:100318008F2920082202031C922993299A29200850
:10032800A2022108031CA303A30225140130031011
:10033800A10CA00CFF3E031D9B290130A702031D41
:10034800A629A72982292608A1002508A0000800B7
:100358000B1DAF29B029C229031083120313051CF2
:1003680003140318B829BC29831203130514BF29E1
:100378008312031305100B11D83081008312031365
:100388000C1FC729C829EB291F0CF000700C0F3966
:10039800003A031DD029D129D8291E0886001F0834
:1003A800C33910389F00EA291F0CF000700C0F3970
:1003B800043A031DE029E129EA291E08F000F101A9
:1003C8007008D3007108D400C3309F050C1373085C
:1003D8008A00720E8300FE0E7E0E0900831203133C
:1003E800280829040319F929FA29292AAD01AD0A8F
:1003F800082A01300310A80DA90DFF3E031DFE2990
:100408000130AC002C08AD07A91F0B2A0C2AFD29C6
:1004180029082B02031D122A28082A02031C152A60
:10042800162A1C2A2808AA022908031CAB03AB02B7
:1004380001300310A90CA80CFF3E031D1D2A013032
:10044800AD02031D282A292A0C2A2B08A9002A08EC
:10045800A8000800831203132B082D02A0002C0803
:10046800031C2C0A2E02A1002B082902F4002C08D8
:10047800031C2C0A2A02F5002F083102F600300866
:10048800031C300A3202F7000A128A11B4220A1237
:100498008A11750883120313A3007408A2000A12B4
:1004A8008A11FD200A128A11831203132F082007CC
:1004B800A90030080318300A2107AA00080083168B
:1004C8000317081408168901831603138601870188
:1004D80088018901831203130510850186018701AC
:1004E800880189017030831603138F040F14811259
:1004F8008111011581140114D8308312031381006E
:100508000B118B168B170B17831603130C178312FB
:1005180003130C1308000A128A1163220A128A11A3
:100528000A128A11D9220A128A111A308312031365
:10053800B600F730B500B50B9F2AB60B9F2AA42A40
:10054800831203139F18A92AAA2AAB2A9F140A12F6
:100558008A112B200A128A11992A0A128A110C2848
:10056800F801F901741CB92ABA2AC02A7608F807D2
:100578000318F90A7708F90701300310F60DF70D8B
:10058800FF3E031DC12A01300310F50CF40CFF3E99
:10059800031DC82A74087504031DD32AD42AB62A51
:1005A8007908F5007808F4000800C33083120313B3
:1005B8009F05831603139F121F12831203131F082C
:1005C8003F3980389F00831603139F138312031348
:1005D8001F140330F5009730F400F40BF12AF50BE3
:1005E800F12AF62A0800BF348634DB34CF34E634E7
:1005F800ED34FD348734FF34E7343F3406345B345C
:100608004F3466346D347D3407347F3467347E0864
:100618008A007F0882000A128A110B230A128A11A3
:100628008000840A04087D0603190034FF0A0319B0
:04063800FE0A0F2B7C
:08400000FF3FFF3FFF3FFF3FC0
:04400E00D420FF3F7C
:00000001FF
