:060000000A128A110C280F
:10000800FE00030EF0000A08F1000A128A111328F4
:100018000A128A110F2883010A128A114C280B1D13
:10002800162817282928031083120313091C031400
:1000380003181F2823288312031309142628831260
:10004800031309100B11D830810071088A00700E53
:100058008300FE0E7E0E09008316031788018901AE
:1000680083160313091083120313091070308316C3
:1000780003138F040F1481128111011581140114C7
:10008800D8308312031381000B118B168B170800CD
:100098000A128A1130200A128A1151280A128A116A
:0200A8000C2822
:08400000FF3FFF3FFF3FFF3FC0
:04400E00D420FF3F7C
:00000001FF
