:060000000A128A110C280F
:10000800FE00030EF1000A08F2000A128A111328F2
:100018000A128A110F2883010A128A117E280B1DE1
:10002800162817282928031083120313051C031404
:1000380003181F2823288312031305142628831264
:10004800031305100B11D8308100831203130C1F02
:100058002E282F284D281F0CF000700C0F39003A5D
:10006800031D372838283F281E0886001F08C33973
:1000780010389F004C281F0CF000700C0F39043A00
:10008800031D472848284C281E088800C3309F05B0
:100098000C1372088A00710E8300FE0E7E0E090092
:1000A800831603170814881489018316031386011D
:1000B80088018312031305108501860187018801D1
:1000C80089017030831603138F040F148112811174
:1000D800011581140114D8308312031381000B1108
:1000E8008B168B170B17831603130C178312031326
:1000F8000C1308000A128A1154200A128A110A12D3
:100108008A119C200A128A111A30F600F830F5007C
:10011800F50B8C28F60B8C280000831203139F180C
:100128009628972888289F1488280A128A110C284C
:10013800C330831203139F05831603139F121F12E4
:10014800831203131F083F3980389F008316031357
:100158009F13831203131F140330F4009730F30026
:0C016800F30BB428F40BB428B9280800ED
:08400000FF3FFF3FFF3FFF3FC0
:04400E00D420FF3F7C
:00000001FF
