:060000000A128A110C280F
:10000800FE00030EF0000A08F1000A128A113D28CA
:100018000A128A110F2883010A128A11812883166D
:1000280003170814881489018316031386018801AD
:100038008312031305108501860187018801890150
:100048007030831603138F040F1481128111011568
:1000580081140114D8308312031381000B118B16FD
:100068008B170B17831603130C17831203130C1328
:1000780008000B1D4028412853280310831203133E
:10008800051C0314031849284D288312031305146B
:1000980050288312031305100B11D83081008312E6
:1000A80003130C1F582859285C281E0886000C13B7
:1000B80071088A00700E8300FE0E7E0E0900C330A0
:1000C800831203139F05831603139F121F128312B3
:1000D80003131F083F3980389F00831603139F13AB
:1000E800831203131F140330F3009730F200F20B4E
:1000F8007B28F30B7B28802808000A128A1113201A
:100108000A128A110A128A1163200A128A118312AA
:1001180003139F18902891288B289F148B280A1264
:040128008A110C2804
:08400000FF3FFF3FFF3FFF3FC0
:04400E00D420FF3F7C
:00000001FF
